{
  "contractName": "CampaignFactory",
  "abi": [
    {
      "inputs": [
        {
          "internalType": "uint256",
          "name": "",
          "type": "uint256"
        }
      ],
      "name": "deployedCampaigns",
      "outputs": [
        {
          "internalType": "address",
          "name": "",
          "type": "address"
        }
      ],
      "stateMutability": "view",
      "type": "function"
    },
    {
      "inputs": [
        {
          "internalType": "uint256",
          "name": "minimum",
          "type": "uint256"
        }
      ],
      "name": "createCampaign",
      "outputs": [],
      "stateMutability": "nonpayable",
      "type": "function"
    },
    {
      "inputs": [],
      "name": "getDeployedCampaigns",
      "outputs": [
        {
          "internalType": "address[]",
          "name": "",
          "type": "address[]"
        }
      ],
      "stateMutability": "view",
      "type": "function"
    }
  ],
  "bytecode": "0x608060405234801561001057600080fd5b506114a0806100206000396000f3fe608060405234801561001057600080fd5b50600436106100415760003560e01c8063339d50a5146100465780634acb9d4f14610076578063a3303a7514610094575b600080fd5b610060600480360381019061005b9190610266565b6100b0565b60405161006d91906102d4565b60405180910390f35b61007e6100ef565b60405161008b91906103ad565b60405180910390f35b6100ae60048036038101906100a99190610266565b61017d565b005b600081815481106100c057600080fd5b906000526020600020016000915054906101000a900473ffffffffffffffffffffffffffffffffffffffff1681565b6060600080548060200260200160405190810160405280929190818152602001828054801561017357602002820191906000526020600020905b8160009054906101000a900473ffffffffffffffffffffffffffffffffffffffff1673ffffffffffffffffffffffffffffffffffffffff1681526020019060010190808311610129575b5050505050905090565b6000813360405161018d9061021e565b6101989291906103de565b604051809103906000f0801580156101b4573d6000803e3d6000fd5b5090506000819080600181540180825580915050600190039060005260206000200160009091909190916101000a81548173ffffffffffffffffffffffffffffffffffffffff021916908373ffffffffffffffffffffffffffffffffffffffff1602179055505050565b6110638061040883390190565b600080fd5b6000819050919050565b61024381610230565b811461024e57600080fd5b50565b6000813590506102608161023a565b92915050565b60006020828403121561027c5761027b61022b565b5b600061028a84828501610251565b91505092915050565b600073ffffffffffffffffffffffffffffffffffffffff82169050919050565b60006102be82610293565b9050919050565b6102ce816102b3565b82525050565b60006020820190506102e960008301846102c5565b92915050565b600081519050919050565b600082825260208201905092915050565b6000819050602082019050919050565b610324816102b3565b82525050565b6000610336838361031b565b60208301905092915050565b6000602082019050919050565b600061035a826102ef565b61036481856102fa565b935061036f8361030b565b8060005b838110156103a0578151610387888261032a565b975061039283610342565b925050600181019050610373565b5085935050505092915050565b600060208201905081810360008301526103c7818461034f565b905092915050565b6103d881610230565b82525050565b60006040820190506103f360008301856103cf565b61040060208301846102c5565b939250505056fe60806040523480156200001157600080fd5b50604051620010633803806200106383398181016040528101906200003791906200012c565b80600160006101000a81548173ffffffffffffffffffffffffffffffffffffffff021916908373ffffffffffffffffffffffffffffffffffffffff16021790555081600281905550505062000173565b600080fd5b6000819050919050565b620000a1816200008c565b8114620000ad57600080fd5b50565b600081519050620000c18162000096565b92915050565b600073ffffffffffffffffffffffffffffffffffffffff82169050919050565b6000620000f482620000c7565b9050919050565b6200010681620000e7565b81146200011257600080fd5b50565b6000815190506200012681620000fb565b92915050565b6000806040838503121562000146576200014562000087565b5b60006200015685828601620000b0565b9250506020620001698582860162000115565b9150509250929050565b610ee080620001836000396000f3fe60806040526004361061009c5760003560e01c806381d12c581161006457806381d12c581461018d57806382fde093146101ce5780638a9cfd55146101f9578063937e09b114610222578063d7bb99ba1461024d578063d7d1bbdb146102575761009c565b806303441006146100a15780630a144391146100ca5780633410452a146101075780634051ddac14610132578063481c6a7514610162575b600080fd5b3480156100ad57600080fd5b506100c860048036038101906100c391906109d3565b610280565b005b3480156100d657600080fd5b506100f160048036038101906100ec9190610a5e565b6103c9565b6040516100fe9190610aa6565b60405180910390f35b34801561011357600080fd5b5061011c6103e9565b6040516101299190610ad0565b60405180910390f35b34801561013e57600080fd5b506101476103f5565b60405161015996959493929190610afa565b60405180910390f35b34801561016e57600080fd5b5061017761048f565b6040516101849190610b5b565b60405180910390f35b34801561019957600080fd5b506101b460048036038101906101af91906109d3565b6104b5565b6040516101c5959493929190610c0f565b60405180910390f35b3480156101da57600080fd5b506101e36105b0565b6040516101f09190610ad0565b60405180910390f35b34801561020557600080fd5b50610220600480360381019061021b9190610cce565b6105b6565b005b34801561022e57600080fd5b506102376106c1565b6040516102449190610ad0565b60405180910390f35b6102556106c7565b005b34801561026357600080fd5b5061027e600480360381019061027991906109d3565b6107a4565b005b600160009054906101000a900473ffffffffffffffffffffffffffffffffffffffff1673ffffffffffffffffffffffffffffffffffffffff163373ffffffffffffffffffffffffffffffffffffffff16146102da57600080fd5b60008082815481106102ef576102ee610d42565b5b90600052602060002090600502019050600260045461030e9190610dcf565b81600301541161031d57600080fd5b8060020160149054906101000a900460ff161561033957600080fd5b8060020160009054906101000a900473ffffffffffffffffffffffffffffffffffffffff1673ffffffffffffffffffffffffffffffffffffffff166108fc82600101549081150290604051600060405180830381858888f193505050501580156103a7573d6000803e3d6000fd5b5060018160020160146101000a81548160ff0219169083151502179055505050565b60036020528060005260406000206000915054906101000a900460ff1681565b60008080549050905090565b60008060008060008060025447600080549050600454600160009054906101000a900473ffffffffffffffffffffffffffffffffffffffff16600360003373ffffffffffffffffffffffffffffffffffffffff1673ffffffffffffffffffffffffffffffffffffffff16815260200190815260200160002060009054906101000a900460ff16955095509550955095509550909192939495565b600160009054906101000a900473ffffffffffffffffffffffffffffffffffffffff1681565b600081815481106104c557600080fd5b90600052602060002090600502016000915090508060000180546104e890610e2f565b80601f016020809104026020016040519081016040528092919081815260200182805461051490610e2f565b80156105615780601f1061053657610100808354040283529160200191610561565b820191906000526020600020905b81548152906001019060200180831161054457829003601f168201915b5050505050908060010154908060020160009054906101000a900473ffffffffffffffffffffffffffffffffffffffff16908060020160149054906101000a900460ff16908060030154905085565b60045481565b600160009054906101000a900473ffffffffffffffffffffffffffffffffffffffff1673ffffffffffffffffffffffffffffffffffffffff163373ffffffffffffffffffffffffffffffffffffffff161461061057600080fd5b600080600181600181540180825580915050039060005260206000209060050201905084848260000191906106469291906108f0565b50828160010181905550818160020160006101000a81548173ffffffffffffffffffffffffffffffffffffffff021916908373ffffffffffffffffffffffffffffffffffffffff16021790555060008160020160146101000a81548160ff021916908315150217905550600081600301819055505050505050565b60025481565b60025434116106d557600080fd5b60001515600360003373ffffffffffffffffffffffffffffffffffffffff1673ffffffffffffffffffffffffffffffffffffffff16815260200190815260200160002060009054906101000a900460ff1615151461073257600080fd5b6001600360003373ffffffffffffffffffffffffffffffffffffffff1673ffffffffffffffffffffffffffffffffffffffff16815260200190815260200160002060006101000a81548160ff0219169083151502179055506004600081548092919061079d90610e61565b9190505550565b60008082815481106107b9576107b8610d42565b5b90600052602060002090600502019050600360003373ffffffffffffffffffffffffffffffffffffffff1673ffffffffffffffffffffffffffffffffffffffff16815260200190815260200160002060009054906101000a900460ff1661081f57600080fd5b8060040160003373ffffffffffffffffffffffffffffffffffffffff1673ffffffffffffffffffffffffffffffffffffffff16815260200190815260200160002060009054906101000a900460ff161561087857600080fd5b60018160040160003373ffffffffffffffffffffffffffffffffffffffff1673ffffffffffffffffffffffffffffffffffffffff16815260200190815260200160002060006101000a81548160ff0219169083151502179055508060030160008154809291906108e790610e61565b91905055505050565b8280546108fc90610e2f565b90600052602060002090601f01602090048101928261091e5760008555610965565b82601f1061093757803560ff1916838001178555610965565b82800160010185558215610965579182015b82811115610964578235825591602001919060010190610949565b5b5090506109729190610976565b5090565b5b8082111561098f576000816000905550600101610977565b5090565b600080fd5b600080fd5b6000819050919050565b6109b08161099d565b81146109bb57600080fd5b50565b6000813590506109cd816109a7565b92915050565b6000602082840312156109e9576109e8610993565b5b60006109f7848285016109be565b91505092915050565b600073ffffffffffffffffffffffffffffffffffffffff82169050919050565b6000610a2b82610a00565b9050919050565b610a3b81610a20565b8114610a4657600080fd5b50565b600081359050610a5881610a32565b92915050565b600060208284031215610a7457610a73610993565b5b6000610a8284828501610a49565b91505092915050565b60008115159050919050565b610aa081610a8b565b82525050565b6000602082019050610abb6000830184610a97565b92915050565b610aca8161099d565b82525050565b6000602082019050610ae56000830184610ac1565b92915050565b610af481610a20565b82525050565b600060c082019050610b0f6000830189610ac1565b610b1c6020830188610ac1565b610b296040830187610ac1565b610b366060830186610ac1565b610b436080830185610aeb565b610b5060a0830184610a97565b979650505050505050565b6000602082019050610b706000830184610aeb565b92915050565b600081519050919050565b600082825260208201905092915050565b60005b83811015610bb0578082015181840152602081019050610b95565b83811115610bbf576000848401525b50505050565b6000601f19601f8301169050919050565b6000610be182610b76565b610beb8185610b81565b9350610bfb818560208601610b92565b610c0481610bc5565b840191505092915050565b600060a0820190508181036000830152610c298188610bd6565b9050610c386020830187610ac1565b610c456040830186610aeb565b610c526060830185610a97565b610c5f6080830184610ac1565b9695505050505050565b600080fd5b600080fd5b600080fd5b60008083601f840112610c8e57610c8d610c69565b5b8235905067ffffffffffffffff811115610cab57610caa610c6e565b5b602083019150836001820283011115610cc757610cc6610c73565b5b9250929050565b60008060008060608587031215610ce857610ce7610993565b5b600085013567ffffffffffffffff811115610d0657610d05610998565b5b610d1287828801610c78565b94509450506020610d25878288016109be565b9250506040610d3687828801610a49565b91505092959194509250565b7f4e487b7100000000000000000000000000000000000000000000000000000000600052603260045260246000fd5b7f4e487b7100000000000000000000000000000000000000000000000000000000600052601260045260246000fd5b7f4e487b7100000000000000000000000000000000000000000000000000000000600052601160045260246000fd5b6000610dda8261099d565b9150610de58361099d565b925082610df557610df4610d71565b5b828204905092915050565b7f4e487b7100000000000000000000000000000000000000000000000000000000600052602260045260246000fd5b60006002820490506001821680610e4757607f821691505b60208210811415610e5b57610e5a610e00565b5b50919050565b6000610e6c8261099d565b91507fffffffffffffffffffffffffffffffffffffffffffffffffffffffffffffffff821415610e9f57610e9e610da0565b5b60018201905091905056fea26469706673582212207f34186b0902db7a05a3a4eda2a82ea942a5a6f0113fae16a1db4019ca7bcef664736f6c634300080b0033a26469706673582212205ee8054d07600f66b24b58076b660f3103e7b6ac3cd8d8760f27de08bd9c323564736f6c634300080b0033",
  "immutableReferences": {},
  "source": "// SPDX-License-Identifier: MIT\npragma solidity ^0.8.11;\nimport \"./Campaign.sol\";\n\ncontract CampaignFactory {\n    address[] public deployedCampaigns;\n\n    function createCampaign(uint256 minimum) public {\n        Campaign newCampaign = new Campaign(minimum, msg.sender);\n        deployedCampaigns.push(address(newCampaign));\n    }\n\n    function getDeployedCampaigns() public view returns (address[] memory) {\n        return deployedCampaigns;\n    }\n}\n",
  "sourcePath": "/Users/canujohann/Documents/projects/truffle-crowdfunding/contracts/CampaignFactory.sol",
  "compiler": {
    "name": "solc",
    "version": "0.8.11+commit.d7f03943.Emscripten.clang"
  },
  "schemaVersion": "3.4.5",
  "updatedAt": "2022-03-26T07:13:47.277Z",
  "devdoc": {
    "kind": "dev",
    "methods": {},
    "version": 1
  },
  "userdoc": {
    "kind": "user",
    "methods": {},
    "version": 1
  }
}