{
  "contractName": "Campaign",
  "abi": [
    {
      "inputs": [
        {
          "internalType": "uint256",
          "name": "minimum",
          "type": "uint256"
        },
        {
          "internalType": "address",
          "name": "creator",
          "type": "address"
        }
      ],
      "stateMutability": "nonpayable",
      "type": "constructor"
    },
    {
      "inputs": [
        {
          "internalType": "address",
          "name": "",
          "type": "address"
        }
      ],
      "name": "approvers",
      "outputs": [
        {
          "internalType": "bool",
          "name": "",
          "type": "bool"
        }
      ],
      "stateMutability": "view",
      "type": "function"
    },
    {
      "inputs": [],
      "name": "approversCount",
      "outputs": [
        {
          "internalType": "uint256",
          "name": "",
          "type": "uint256"
        }
      ],
      "stateMutability": "view",
      "type": "function"
    },
    {
      "inputs": [],
      "name": "manager",
      "outputs": [
        {
          "internalType": "address",
          "name": "",
          "type": "address"
        }
      ],
      "stateMutability": "view",
      "type": "function"
    },
    {
      "inputs": [],
      "name": "minimumContribution",
      "outputs": [
        {
          "internalType": "uint256",
          "name": "",
          "type": "uint256"
        }
      ],
      "stateMutability": "view",
      "type": "function"
    },
    {
      "inputs": [
        {
          "internalType": "uint256",
          "name": "",
          "type": "uint256"
        }
      ],
      "name": "requests",
      "outputs": [
        {
          "internalType": "string",
          "name": "description",
          "type": "string"
        },
        {
          "internalType": "uint256",
          "name": "value",
          "type": "uint256"
        },
        {
          "internalType": "address",
          "name": "recipient",
          "type": "address"
        },
        {
          "internalType": "bool",
          "name": "complete",
          "type": "bool"
        },
        {
          "internalType": "uint256",
          "name": "approvalCount",
          "type": "uint256"
        }
      ],
      "stateMutability": "view",
      "type": "function"
    },
    {
      "inputs": [],
      "name": "contribute",
      "outputs": [],
      "stateMutability": "payable",
      "type": "function"
    },
    {
      "inputs": [
        {
          "internalType": "string",
          "name": "description",
          "type": "string"
        },
        {
          "internalType": "uint256",
          "name": "value",
          "type": "uint256"
        },
        {
          "internalType": "address",
          "name": "recipient",
          "type": "address"
        }
      ],
      "name": "createRequest",
      "outputs": [],
      "stateMutability": "nonpayable",
      "type": "function"
    },
    {
      "inputs": [
        {
          "internalType": "uint256",
          "name": "index",
          "type": "uint256"
        }
      ],
      "name": "approveRequest",
      "outputs": [],
      "stateMutability": "nonpayable",
      "type": "function"
    },
    {
      "inputs": [
        {
          "internalType": "uint256",
          "name": "index",
          "type": "uint256"
        }
      ],
      "name": "finalizeRequest",
      "outputs": [],
      "stateMutability": "nonpayable",
      "type": "function"
    },
    {
      "inputs": [],
      "name": "getSummary",
      "outputs": [
        {
          "internalType": "uint256",
          "name": "",
          "type": "uint256"
        },
        {
          "internalType": "uint256",
          "name": "",
          "type": "uint256"
        },
        {
          "internalType": "uint256",
          "name": "",
          "type": "uint256"
        },
        {
          "internalType": "uint256",
          "name": "",
          "type": "uint256"
        },
        {
          "internalType": "address",
          "name": "",
          "type": "address"
        },
        {
          "internalType": "bool",
          "name": "",
          "type": "bool"
        }
      ],
      "stateMutability": "view",
      "type": "function"
    },
    {
      "inputs": [],
      "name": "getRequestsCount",
      "outputs": [
        {
          "internalType": "uint256",
          "name": "",
          "type": "uint256"
        }
      ],
      "stateMutability": "view",
      "type": "function"
    }
  ],
  "bytecode": "0x60806040523480156200001157600080fd5b50604051620011163803806200111683398181016040528101906200003791906200012c565b80600160006101000a81548173ffffffffffffffffffffffffffffffffffffffff021916908373ffffffffffffffffffffffffffffffffffffffff16021790555081600281905550505062000173565b600080fd5b6000819050919050565b620000a1816200008c565b8114620000ad57600080fd5b50565b600081519050620000c18162000096565b92915050565b600073ffffffffffffffffffffffffffffffffffffffff82169050919050565b6000620000f482620000c7565b9050919050565b6200010681620000e7565b81146200011257600080fd5b50565b6000815190506200012681620000fb565b92915050565b6000806040838503121562000146576200014562000087565b5b60006200015685828601620000b0565b9250506020620001698582860162000115565b9150509250929050565b610f9380620001836000396000f3fe60806040526004361061009c5760003560e01c806381d12c581161006457806381d12c581461018d57806382fde093146101ce5780638a9cfd55146101f9578063937e09b114610222578063d7bb99ba1461024d578063d7d1bbdb146102575761009c565b806303441006146100a15780630a144391146100ca5780633410452a146101075780634051ddac14610132578063481c6a7514610162575b600080fd5b3480156100ad57600080fd5b506100c860048036038101906100c39190610a86565b610280565b005b3480156100d657600080fd5b506100f160048036038101906100ec9190610b11565b6103c9565b6040516100fe9190610b59565b60405180910390f35b34801561011357600080fd5b5061011c6103e9565b6040516101299190610b83565b60405180910390f35b34801561013e57600080fd5b506101476103f5565b60405161015996959493929190610bad565b60405180910390f35b34801561016e57600080fd5b506101776104e7565b6040516101849190610c0e565b60405180910390f35b34801561019957600080fd5b506101b460048036038101906101af9190610a86565b61050d565b6040516101c5959493929190610cc2565b60405180910390f35b3480156101da57600080fd5b506101e3610608565b6040516101f09190610b83565b60405180910390f35b34801561020557600080fd5b50610220600480360381019061021b9190610d81565b61060e565b005b34801561022e57600080fd5b50610237610719565b6040516102449190610b83565b60405180910390f35b61025561071f565b005b34801561026357600080fd5b5061027e60048036038101906102799190610a86565b610857565b005b600160009054906101000a900473ffffffffffffffffffffffffffffffffffffffff1673ffffffffffffffffffffffffffffffffffffffff163373ffffffffffffffffffffffffffffffffffffffff16146102da57600080fd5b60008082815481106102ef576102ee610df5565b5b90600052602060002090600502019050600260045461030e9190610e82565b81600301541161031d57600080fd5b8060020160149054906101000a900460ff161561033957600080fd5b8060020160009054906101000a900473ffffffffffffffffffffffffffffffffffffffff1673ffffffffffffffffffffffffffffffffffffffff166108fc82600101549081150290604051600060405180830381858888f193505050501580156103a7573d6000803e3d6000fd5b5060018160020160146101000a81548160ff0219169083151502179055505050565b60036020528060005260406000206000915054906101000a900460ff1681565b60008080549050905090565b60008060008060008060025447600080549050600454600160009054906101000a900473ffffffffffffffffffffffffffffffffffffffff16600360003373ffffffffffffffffffffffffffffffffffffffff1673ffffffffffffffffffffffffffffffffffffffff16815260200190815260200160002060009054906101000a900460ff16806104d35750600160009054906101000a900473ffffffffffffffffffffffffffffffffffffffff1673ffffffffffffffffffffffffffffffffffffffff163373ffffffffffffffffffffffffffffffffffffffff16145b955095509550955095509550909192939495565b600160009054906101000a900473ffffffffffffffffffffffffffffffffffffffff1681565b6000818154811061051d57600080fd5b906000526020600020906005020160009150905080600001805461054090610ee2565b80601f016020809104026020016040519081016040528092919081815260200182805461056c90610ee2565b80156105b95780601f1061058e576101008083540402835291602001916105b9565b820191906000526020600020905b81548152906001019060200180831161059c57829003601f168201915b5050505050908060010154908060020160009054906101000a900473ffffffffffffffffffffffffffffffffffffffff16908060020160149054906101000a900460ff16908060030154905085565b60045481565b600160009054906101000a900473ffffffffffffffffffffffffffffffffffffffff1673ffffffffffffffffffffffffffffffffffffffff163373ffffffffffffffffffffffffffffffffffffffff161461066857600080fd5b6000806001816001815401808255809150500390600052602060002090600502019050848482600001919061069e9291906109a3565b50828160010181905550818160020160006101000a81548173ffffffffffffffffffffffffffffffffffffffff021916908373ffffffffffffffffffffffffffffffffffffffff16021790555060008160020160146101000a81548160ff021916908315150217905550600081600301819055505050505050565b60025481565b600254341161072d57600080fd5b60001515600360003373ffffffffffffffffffffffffffffffffffffffff1673ffffffffffffffffffffffffffffffffffffffff16815260200190815260200160002060009054906101000a900460ff1615151461078a57600080fd5b600160009054906101000a900473ffffffffffffffffffffffffffffffffffffffff1673ffffffffffffffffffffffffffffffffffffffff163373ffffffffffffffffffffffffffffffffffffffff1614156107e557600080fd5b6001600360003373ffffffffffffffffffffffffffffffffffffffff1673ffffffffffffffffffffffffffffffffffffffff16815260200190815260200160002060006101000a81548160ff0219169083151502179055506004600081548092919061085090610f14565b9190505550565b600080828154811061086c5761086b610df5565b5b90600052602060002090600502019050600360003373ffffffffffffffffffffffffffffffffffffffff1673ffffffffffffffffffffffffffffffffffffffff16815260200190815260200160002060009054906101000a900460ff166108d257600080fd5b8060040160003373ffffffffffffffffffffffffffffffffffffffff1673ffffffffffffffffffffffffffffffffffffffff16815260200190815260200160002060009054906101000a900460ff161561092b57600080fd5b60018160040160003373ffffffffffffffffffffffffffffffffffffffff1673ffffffffffffffffffffffffffffffffffffffff16815260200190815260200160002060006101000a81548160ff02191690831515021790555080600301600081548092919061099a90610f14565b91905055505050565b8280546109af90610ee2565b90600052602060002090601f0160209004810192826109d15760008555610a18565b82601f106109ea57803560ff1916838001178555610a18565b82800160010185558215610a18579182015b82811115610a175782358255916020019190600101906109fc565b5b509050610a259190610a29565b5090565b5b80821115610a42576000816000905550600101610a2a565b5090565b600080fd5b600080fd5b6000819050919050565b610a6381610a50565b8114610a6e57600080fd5b50565b600081359050610a8081610a5a565b92915050565b600060208284031215610a9c57610a9b610a46565b5b6000610aaa84828501610a71565b91505092915050565b600073ffffffffffffffffffffffffffffffffffffffff82169050919050565b6000610ade82610ab3565b9050919050565b610aee81610ad3565b8114610af957600080fd5b50565b600081359050610b0b81610ae5565b92915050565b600060208284031215610b2757610b26610a46565b5b6000610b3584828501610afc565b91505092915050565b60008115159050919050565b610b5381610b3e565b82525050565b6000602082019050610b6e6000830184610b4a565b92915050565b610b7d81610a50565b82525050565b6000602082019050610b986000830184610b74565b92915050565b610ba781610ad3565b82525050565b600060c082019050610bc26000830189610b74565b610bcf6020830188610b74565b610bdc6040830187610b74565b610be96060830186610b74565b610bf66080830185610b9e565b610c0360a0830184610b4a565b979650505050505050565b6000602082019050610c236000830184610b9e565b92915050565b600081519050919050565b600082825260208201905092915050565b60005b83811015610c63578082015181840152602081019050610c48565b83811115610c72576000848401525b50505050565b6000601f19601f8301169050919050565b6000610c9482610c29565b610c9e8185610c34565b9350610cae818560208601610c45565b610cb781610c78565b840191505092915050565b600060a0820190508181036000830152610cdc8188610c89565b9050610ceb6020830187610b74565b610cf86040830186610b9e565b610d056060830185610b4a565b610d126080830184610b74565b9695505050505050565b600080fd5b600080fd5b600080fd5b60008083601f840112610d4157610d40610d1c565b5b8235905067ffffffffffffffff811115610d5e57610d5d610d21565b5b602083019150836001820283011115610d7a57610d79610d26565b5b9250929050565b60008060008060608587031215610d9b57610d9a610a46565b5b600085013567ffffffffffffffff811115610db957610db8610a4b565b5b610dc587828801610d2b565b94509450506020610dd887828801610a71565b9250506040610de987828801610afc565b91505092959194509250565b7f4e487b7100000000000000000000000000000000000000000000000000000000600052603260045260246000fd5b7f4e487b7100000000000000000000000000000000000000000000000000000000600052601260045260246000fd5b7f4e487b7100000000000000000000000000000000000000000000000000000000600052601160045260246000fd5b6000610e8d82610a50565b9150610e9883610a50565b925082610ea857610ea7610e24565b5b828204905092915050565b7f4e487b7100000000000000000000000000000000000000000000000000000000600052602260045260246000fd5b60006002820490506001821680610efa57607f821691505b60208210811415610f0e57610f0d610eb3565b5b50919050565b6000610f1f82610a50565b91507fffffffffffffffffffffffffffffffffffffffffffffffffffffffffffffffff821415610f5257610f51610e53565b5b60018201905091905056fea2646970667358221220e192df9154773a37cfb1d5e1bdf36cc0746ed34751799614452584e2a886a83164736f6c634300080b0033",
  "immutableReferences": {},
  "source": "// SPDX-License-Identifier: MIT\npragma solidity ^0.8.11;\n\ncontract Campaign {\n    struct Request {\n        string description;\n        uint256 value;\n        address recipient;\n        bool complete;\n        uint256 approvalCount;\n        mapping(address => bool) approvals;\n    }\n\n    Request[] public requests;\n    address public manager;\n    uint256 public minimumContribution;\n    mapping(address => bool) public approvers;\n    uint256 public approversCount;\n\n    modifier restricted() {\n        require(msg.sender == manager);\n        _;\n    }\n\n    constructor(uint256 minimum, address creator) {\n        manager = creator;\n        minimumContribution = minimum;\n    }\n\n    /**\n    Can contribute only if amount is greater than minimum contribution\n    and if sender has not contributed before\n    and if sender is not the campaign manager.\n     */\n    function contribute() public payable {\n        require(msg.value > minimumContribution);\n        require(approvers[msg.sender] == false);\n        require(msg.sender != manager);\n\n        approvers[msg.sender] = true;\n        approversCount++;\n    }\n\n    function createRequest(\n        string calldata description,\n        uint256 value,\n        address recipient\n    ) public restricted {\n        // `Request` Struct containing a (nested) mapping cannot be constructed\n        // Need to use the workaround below\n        Request storage newRequest = requests.push();\n        newRequest.description = description;\n        newRequest.value = value;\n        newRequest.recipient = recipient;\n        newRequest.complete = false;\n        newRequest.approvalCount = 0;\n    }\n\n    function approveRequest(uint256 index) public {\n        Request storage request = requests[index];\n\n        require(approvers[msg.sender]);\n        require(!request.approvals[msg.sender]);\n\n        request.approvals[msg.sender] = true;\n        request.approvalCount++;\n    }\n\n    function finalizeRequest(uint256 index) public restricted {\n        Request storage request = requests[index];\n\n        require(request.approvalCount > (approversCount / 2));\n        require(!request.complete);\n\n        // TypeError: \"send\" and \"transfer\" are only available for\n        // objects of type \"address payable\", not \"address\".\n        // Need to add the payable part\n        payable(request.recipient).transfer(request.value);\n        request.complete = true;\n    }\n\n    /**\n    Get basic information for a specific campaign:\n    - Minimum contribution (0)\n    - Balance of the contract (1)\n    - number of requests (2)\n    - number of contributors (3)\n    - Manager address (4)\n    - Is current user eligible for contribution (5)\n\n     */\n    function getSummary()\n        public\n        view\n        returns (\n            uint256,\n            uint256,\n            uint256,\n            uint256,\n            address,\n            bool\n        )\n    {\n        return (\n            minimumContribution,\n            address(this).balance,\n            requests.length,\n            approversCount,\n            manager,\n            (approvers[msg.sender] || msg.sender == manager)\n        );\n    }\n\n    function getRequestsCount() public view returns (uint256) {\n        return requests.length;\n    }\n}\n",
  "sourcePath": "/Users/canujohann/Documents/projects/truffle-crowdfunding/contracts/Campaign.sol",
  "compiler": {
    "name": "solc",
    "version": "0.8.11+commit.d7f03943.Emscripten.clang"
  },
  "schemaVersion": "3.4.5",
  "updatedAt": "2022-03-26T13:31:43.676Z",
  "devdoc": {
    "kind": "dev",
    "methods": {},
    "version": 1
  },
  "userdoc": {
    "kind": "user",
    "methods": {
      "contribute()": {
        "notice": "Can contribute only if amount is greater than minimum contribution and if sender has not contributed before and if sender is not the campaign manager."
      },
      "getSummary()": {
        "notice": "Get basic information for a specific campaign: - Minimum contribution (0) - Balance of the contract (1) - number of requests (2) - number of contributors (3) - Manager address (4) - Is current user eligible for contribution (5)"
      }
    },
    "version": 1
  }
}