{
  "contractName": "Campaign",
  "abi": [
    {
      "inputs": [
        {
          "internalType": "uint256",
          "name": "minimum",
          "type": "uint256"
        },
        {
          "internalType": "address",
          "name": "creator",
          "type": "address"
        },
        {
          "internalType": "string",
          "name": "imageIllustration",
          "type": "string"
        }
      ],
      "stateMutability": "nonpayable",
      "type": "constructor"
    },
    {
      "inputs": [
        {
          "internalType": "address",
          "name": "",
          "type": "address"
        }
      ],
      "name": "approvers",
      "outputs": [
        {
          "internalType": "bool",
          "name": "",
          "type": "bool"
        }
      ],
      "stateMutability": "view",
      "type": "function"
    },
    {
      "inputs": [],
      "name": "approversCount",
      "outputs": [
        {
          "internalType": "uint256",
          "name": "",
          "type": "uint256"
        }
      ],
      "stateMutability": "view",
      "type": "function"
    },
    {
      "inputs": [],
      "name": "image",
      "outputs": [
        {
          "internalType": "string",
          "name": "",
          "type": "string"
        }
      ],
      "stateMutability": "view",
      "type": "function"
    },
    {
      "inputs": [],
      "name": "manager",
      "outputs": [
        {
          "internalType": "address",
          "name": "",
          "type": "address"
        }
      ],
      "stateMutability": "view",
      "type": "function"
    },
    {
      "inputs": [],
      "name": "minimumContribution",
      "outputs": [
        {
          "internalType": "uint256",
          "name": "",
          "type": "uint256"
        }
      ],
      "stateMutability": "view",
      "type": "function"
    },
    {
      "inputs": [
        {
          "internalType": "uint256",
          "name": "",
          "type": "uint256"
        }
      ],
      "name": "requests",
      "outputs": [
        {
          "internalType": "string",
          "name": "description",
          "type": "string"
        },
        {
          "internalType": "uint256",
          "name": "value",
          "type": "uint256"
        },
        {
          "internalType": "address",
          "name": "recipient",
          "type": "address"
        },
        {
          "internalType": "bool",
          "name": "complete",
          "type": "bool"
        },
        {
          "internalType": "uint256",
          "name": "approvalCount",
          "type": "uint256"
        }
      ],
      "stateMutability": "view",
      "type": "function"
    },
    {
      "inputs": [],
      "name": "contribute",
      "outputs": [],
      "stateMutability": "payable",
      "type": "function"
    },
    {
      "inputs": [
        {
          "internalType": "string",
          "name": "description",
          "type": "string"
        },
        {
          "internalType": "uint256",
          "name": "value",
          "type": "uint256"
        },
        {
          "internalType": "address",
          "name": "recipient",
          "type": "address"
        }
      ],
      "name": "createRequest",
      "outputs": [],
      "stateMutability": "nonpayable",
      "type": "function"
    },
    {
      "inputs": [
        {
          "internalType": "uint256",
          "name": "index",
          "type": "uint256"
        }
      ],
      "name": "approveRequest",
      "outputs": [],
      "stateMutability": "nonpayable",
      "type": "function"
    },
    {
      "inputs": [
        {
          "internalType": "uint256",
          "name": "index",
          "type": "uint256"
        }
      ],
      "name": "finalizeRequest",
      "outputs": [],
      "stateMutability": "nonpayable",
      "type": "function"
    },
    {
      "inputs": [],
      "name": "getSummary",
      "outputs": [
        {
          "internalType": "uint256",
          "name": "",
          "type": "uint256"
        },
        {
          "internalType": "uint256",
          "name": "",
          "type": "uint256"
        },
        {
          "internalType": "uint256",
          "name": "",
          "type": "uint256"
        },
        {
          "internalType": "uint256",
          "name": "",
          "type": "uint256"
        },
        {
          "internalType": "address",
          "name": "",
          "type": "address"
        },
        {
          "internalType": "bool",
          "name": "",
          "type": "bool"
        },
        {
          "internalType": "string",
          "name": "",
          "type": "string"
        }
      ],
      "stateMutability": "view",
      "type": "function"
    },
    {
      "inputs": [],
      "name": "getRequestsCount",
      "outputs": [
        {
          "internalType": "uint256",
          "name": "",
          "type": "uint256"
        }
      ],
      "stateMutability": "view",
      "type": "function"
    }
  ],
  "bytecode": "0x60806040523480156200001157600080fd5b50604051620015a0380380620015a083398181016040528101906200003791906200038e565b81600160006101000a81548173ffffffffffffffffffffffffffffffffffffffff021916908373ffffffffffffffffffffffffffffffffffffffff16021790555082600281905550806003908051906020019062000097929190620000a1565b505050506200046e565b828054620000af9062000438565b90600052602060002090601f016020900481019282620000d357600085556200011f565b82601f10620000ee57805160ff19168380011785556200011f565b828001600101855582156200011f579182015b828111156200011e57825182559160200191906001019062000101565b5b5090506200012e919062000132565b5090565b5b808211156200014d57600081600090555060010162000133565b5090565b6000604051905090565b600080fd5b600080fd5b6000819050919050565b6200017a8162000165565b81146200018657600080fd5b50565b6000815190506200019a816200016f565b92915050565b600073ffffffffffffffffffffffffffffffffffffffff82169050919050565b6000620001cd82620001a0565b9050919050565b620001df81620001c0565b8114620001eb57600080fd5b50565b600081519050620001ff81620001d4565b92915050565b600080fd5b600080fd5b6000601f19601f8301169050919050565b7f4e487b7100000000000000000000000000000000000000000000000000000000600052604160045260246000fd5b6200025a826200020f565b810181811067ffffffffffffffff821117156200027c576200027b62000220565b5b80604052505050565b60006200029162000151565b90506200029f82826200024f565b919050565b600067ffffffffffffffff821115620002c257620002c162000220565b5b620002cd826200020f565b9050602081019050919050565b60005b83811015620002fa578082015181840152602081019050620002dd565b838111156200030a576000848401525b50505050565b6000620003276200032184620002a4565b62000285565b9050828152602081018484840111156200034657620003456200020a565b5b62000353848285620002da565b509392505050565b600082601f83011262000373576200037262000205565b5b81516200038584826020860162000310565b91505092915050565b600080600060608486031215620003aa57620003a96200015b565b5b6000620003ba8682870162000189565b9350506020620003cd86828701620001ee565b925050604084015167ffffffffffffffff811115620003f157620003f062000160565b5b620003ff868287016200035b565b9150509250925092565b7f4e487b7100000000000000000000000000000000000000000000000000000000600052602260045260246000fd5b600060028204905060018216806200045157607f821691505b6020821081141562000468576200046762000409565b5b50919050565b611122806200047e6000396000f3fe6080604052600436106100a75760003560e01c806382fde0931161006457806382fde093146101da5780638a9cfd5514610205578063937e09b11461022e578063d7bb99ba14610259578063d7d1bbdb14610263578063f3ccaac01461028c576100a7565b806303441006146100ac5780630a144391146100d55780633410452a146101125780634051ddac1461013d578063481c6a751461016e57806381d12c5814610199575b600080fd5b3480156100b857600080fd5b506100d360048036038101906100ce9190610bde565b6102b7565b005b3480156100e157600080fd5b506100fc60048036038101906100f79190610c69565b610400565b6040516101099190610cb1565b60405180910390f35b34801561011e57600080fd5b50610127610420565b6040516101349190610cdb565b60405180910390f35b34801561014957600080fd5b5061015261042c565b6040516101659796959493929190610d9e565b60405180910390f35b34801561017a57600080fd5b506101836105b1565b6040516101909190610e14565b60405180910390f35b3480156101a557600080fd5b506101c060048036038101906101bb9190610bde565b6105d7565b6040516101d1959493929190610e2f565b60405180910390f35b3480156101e657600080fd5b506101ef6106d2565b6040516101fc9190610cdb565b60405180910390f35b34801561021157600080fd5b5061022c60048036038101906102279190610eee565b6106d8565b005b34801561023a57600080fd5b506102436107e3565b6040516102509190610cdb565b60405180910390f35b6102616107e9565b005b34801561026f57600080fd5b5061028a60048036038101906102859190610bde565b610921565b005b34801561029857600080fd5b506102a1610a6d565b6040516102ae9190610f62565b60405180910390f35b600160009054906101000a900473ffffffffffffffffffffffffffffffffffffffff1673ffffffffffffffffffffffffffffffffffffffff163373ffffffffffffffffffffffffffffffffffffffff161461031157600080fd5b600080828154811061032657610325610f84565b5b9060005260206000209060050201905060026005546103459190611011565b81600301541161035457600080fd5b8060020160149054906101000a900460ff161561037057600080fd5b8060020160009054906101000a900473ffffffffffffffffffffffffffffffffffffffff1673ffffffffffffffffffffffffffffffffffffffff166108fc82600101549081150290604051600060405180830381858888f193505050501580156103de573d6000803e3d6000fd5b5060018160020160146101000a81548160ff0219169083151502179055505050565b60046020528060005260406000206000915054906101000a900460ff1681565b60008080549050905090565b600080600080600080606060025447600080549050600554600160009054906101000a900473ffffffffffffffffffffffffffffffffffffffff16600460003373ffffffffffffffffffffffffffffffffffffffff1673ffffffffffffffffffffffffffffffffffffffff16815260200190815260200160002060009054906101000a900460ff168061050c5750600160009054906101000a900473ffffffffffffffffffffffffffffffffffffffff1673ffffffffffffffffffffffffffffffffffffffff163373ffffffffffffffffffffffffffffffffffffffff16145b600380805461051a90611071565b80601f016020809104026020016040519081016040528092919081815260200182805461054690611071565b80156105935780601f1061056857610100808354040283529160200191610593565b820191906000526020600020905b81548152906001019060200180831161057657829003601f168201915b50505050509050965096509650965096509650965090919293949596565b600160009054906101000a900473ffffffffffffffffffffffffffffffffffffffff1681565b600081815481106105e757600080fd5b906000526020600020906005020160009150905080600001805461060a90611071565b80601f016020809104026020016040519081016040528092919081815260200182805461063690611071565b80156106835780601f1061065857610100808354040283529160200191610683565b820191906000526020600020905b81548152906001019060200180831161066657829003601f168201915b5050505050908060010154908060020160009054906101000a900473ffffffffffffffffffffffffffffffffffffffff16908060020160149054906101000a900460ff16908060030154905085565b60055481565b600160009054906101000a900473ffffffffffffffffffffffffffffffffffffffff1673ffffffffffffffffffffffffffffffffffffffff163373ffffffffffffffffffffffffffffffffffffffff161461073257600080fd5b60008060018160018154018082558091505003906000526020600020906005020190508484826000019190610768929190610afb565b50828160010181905550818160020160006101000a81548173ffffffffffffffffffffffffffffffffffffffff021916908373ffffffffffffffffffffffffffffffffffffffff16021790555060008160020160146101000a81548160ff021916908315150217905550600081600301819055505050505050565b60025481565b60025434116107f757600080fd5b60001515600460003373ffffffffffffffffffffffffffffffffffffffff1673ffffffffffffffffffffffffffffffffffffffff16815260200190815260200160002060009054906101000a900460ff1615151461085457600080fd5b600160009054906101000a900473ffffffffffffffffffffffffffffffffffffffff1673ffffffffffffffffffffffffffffffffffffffff163373ffffffffffffffffffffffffffffffffffffffff1614156108af57600080fd5b6001600460003373ffffffffffffffffffffffffffffffffffffffff1673ffffffffffffffffffffffffffffffffffffffff16815260200190815260200160002060006101000a81548160ff0219169083151502179055506005600081548092919061091a906110a3565b9190505550565b600080828154811061093657610935610f84565b5b90600052602060002090600502019050600460003373ffffffffffffffffffffffffffffffffffffffff1673ffffffffffffffffffffffffffffffffffffffff16815260200190815260200160002060009054906101000a900460ff1661099c57600080fd5b8060040160003373ffffffffffffffffffffffffffffffffffffffff1673ffffffffffffffffffffffffffffffffffffffff16815260200190815260200160002060009054906101000a900460ff16156109f557600080fd5b60018160040160003373ffffffffffffffffffffffffffffffffffffffff1673ffffffffffffffffffffffffffffffffffffffff16815260200190815260200160002060006101000a81548160ff021916908315150217905550806003016000815480929190610a64906110a3565b91905055505050565b60038054610a7a90611071565b80601f0160208091040260200160405190810160405280929190818152602001828054610aa690611071565b8015610af35780601f10610ac857610100808354040283529160200191610af3565b820191906000526020600020905b815481529060010190602001808311610ad657829003601f168201915b505050505081565b828054610b0790611071565b90600052602060002090601f016020900481019282610b295760008555610b70565b82601f10610b4257803560ff1916838001178555610b70565b82800160010185558215610b70579182015b82811115610b6f578235825591602001919060010190610b54565b5b509050610b7d9190610b81565b5090565b5b80821115610b9a576000816000905550600101610b82565b5090565b600080fd5b600080fd5b6000819050919050565b610bbb81610ba8565b8114610bc657600080fd5b50565b600081359050610bd881610bb2565b92915050565b600060208284031215610bf457610bf3610b9e565b5b6000610c0284828501610bc9565b91505092915050565b600073ffffffffffffffffffffffffffffffffffffffff82169050919050565b6000610c3682610c0b565b9050919050565b610c4681610c2b565b8114610c5157600080fd5b50565b600081359050610c6381610c3d565b92915050565b600060208284031215610c7f57610c7e610b9e565b5b6000610c8d84828501610c54565b91505092915050565b60008115159050919050565b610cab81610c96565b82525050565b6000602082019050610cc66000830184610ca2565b92915050565b610cd581610ba8565b82525050565b6000602082019050610cf06000830184610ccc565b92915050565b610cff81610c2b565b82525050565b600081519050919050565b600082825260208201905092915050565b60005b83811015610d3f578082015181840152602081019050610d24565b83811115610d4e576000848401525b50505050565b6000601f19601f8301169050919050565b6000610d7082610d05565b610d7a8185610d10565b9350610d8a818560208601610d21565b610d9381610d54565b840191505092915050565b600060e082019050610db3600083018a610ccc565b610dc06020830189610ccc565b610dcd6040830188610ccc565b610dda6060830187610ccc565b610de76080830186610cf6565b610df460a0830185610ca2565b81810360c0830152610e068184610d65565b905098975050505050505050565b6000602082019050610e296000830184610cf6565b92915050565b600060a0820190508181036000830152610e498188610d65565b9050610e586020830187610ccc565b610e656040830186610cf6565b610e726060830185610ca2565b610e7f6080830184610ccc565b9695505050505050565b600080fd5b600080fd5b600080fd5b60008083601f840112610eae57610ead610e89565b5b8235905067ffffffffffffffff811115610ecb57610eca610e8e565b5b602083019150836001820283011115610ee757610ee6610e93565b5b9250929050565b60008060008060608587031215610f0857610f07610b9e565b5b600085013567ffffffffffffffff811115610f2657610f25610ba3565b5b610f3287828801610e98565b94509450506020610f4587828801610bc9565b9250506040610f5687828801610c54565b91505092959194509250565b60006020820190508181036000830152610f7c8184610d65565b905092915050565b7f4e487b7100000000000000000000000000000000000000000000000000000000600052603260045260246000fd5b7f4e487b7100000000000000000000000000000000000000000000000000000000600052601260045260246000fd5b7f4e487b7100000000000000000000000000000000000000000000000000000000600052601160045260246000fd5b600061101c82610ba8565b915061102783610ba8565b92508261103757611036610fb3565b5b828204905092915050565b7f4e487b7100000000000000000000000000000000000000000000000000000000600052602260045260246000fd5b6000600282049050600182168061108957607f821691505b6020821081141561109d5761109c611042565b5b50919050565b60006110ae82610ba8565b91507fffffffffffffffffffffffffffffffffffffffffffffffffffffffffffffffff8214156110e1576110e0610fe2565b5b60018201905091905056fea26469706673582212209a5f8be3eae00ce97422878b0cdeddf8458ea528665aea95329383635046ce6e64736f6c634300080b0033",
  "immutableReferences": {},
  "source": "// SPDX-License-Identifier: MIT\npragma solidity ^0.8.11;\n\ncontract Campaign {\n    struct Request {\n        string description;\n        uint256 value;\n        address recipient;\n        bool complete;\n        uint256 approvalCount;\n        mapping(address => bool) approvals;\n    }\n\n    Request[] public requests;\n    address public manager;\n    uint256 public minimumContribution;\n    string public image;\n    mapping(address => bool) public approvers;\n    uint256 public approversCount;\n\n    modifier restricted() {\n        require(msg.sender == manager);\n        _;\n    }\n\n    constructor(\n        uint256 minimum,\n        address creator,\n        string memory imageIllustration\n    ) {\n        manager = creator;\n        minimumContribution = minimum;\n        image = imageIllustration;\n    }\n\n    /**\n    Can contribute only if amount is greater than minimum contribution\n    and if sender has not contributed before\n    and if sender is not the campaign manager.\n     */\n    function contribute() public payable {\n        require(msg.value > minimumContribution);\n        require(approvers[msg.sender] == false);\n        require(msg.sender != manager);\n\n        approvers[msg.sender] = true;\n        approversCount++;\n    }\n\n    function createRequest(\n        string calldata description,\n        uint256 value,\n        address recipient\n    ) public restricted {\n        // `Request` Struct containing a (nested) mapping cannot be constructed\n        // Need to use the workaround below\n        Request storage newRequest = requests.push();\n        newRequest.description = description;\n        newRequest.value = value;\n        newRequest.recipient = recipient;\n        newRequest.complete = false;\n        newRequest.approvalCount = 0;\n    }\n\n    function approveRequest(uint256 index) public {\n        Request storage request = requests[index];\n\n        require(approvers[msg.sender]);\n        require(!request.approvals[msg.sender]);\n\n        request.approvals[msg.sender] = true;\n        request.approvalCount++;\n    }\n\n    function finalizeRequest(uint256 index) public restricted {\n        Request storage request = requests[index];\n\n        require(request.approvalCount > (approversCount / 2));\n        require(!request.complete);\n\n        // TypeError: \"send\" and \"transfer\" are only available for\n        // objects of type \"address payable\", not \"address\".\n        // Need to add the payable part\n        payable(request.recipient).transfer(request.value);\n        request.complete = true;\n    }\n\n    /**\n    Get basic information for a specific campaign:\n    - Minimum contribution (0)\n    - Balance of the contract (1)\n    - number of requests (2)\n    - number of contributors (3)\n    - Manager address (4)\n    - Is current user eligible for contribution (5)\n\n     */\n    function getSummary()\n        public\n        view\n        returns (\n            uint256,\n            uint256,\n            uint256,\n            uint256,\n            address,\n            bool,\n            string memory\n        )\n    {\n        return (\n            minimumContribution,\n            address(this).balance,\n            requests.length,\n            approversCount,\n            manager,\n            (approvers[msg.sender] || msg.sender == manager),\n            image\n        );\n    }\n\n    function getRequestsCount() public view returns (uint256) {\n        return requests.length;\n    }\n}\n",
  "sourcePath": "/Users/canujohann/Documents/projects/truffle-crowdfunding/contracts/Campaign.sol",
  "compiler": {
    "name": "solc",
    "version": "0.8.11+commit.d7f03943.Emscripten.clang"
  },
  "schemaVersion": "3.4.5",
  "updatedAt": "2022-06-18T04:51:30.034Z",
  "devdoc": {
    "kind": "dev",
    "methods": {},
    "version": 1
  },
  "userdoc": {
    "kind": "user",
    "methods": {
      "contribute()": {
        "notice": "Can contribute only if amount is greater than minimum contribution and if sender has not contributed before and if sender is not the campaign manager."
      },
      "getSummary()": {
        "notice": "Get basic information for a specific campaign: - Minimum contribution (0) - Balance of the contract (1) - number of requests (2) - number of contributors (3) - Manager address (4) - Is current user eligible for contribution (5)"
      }
    },
    "version": 1
  }
}